:020000040000FA
:1000000000010400000000004A0300004A03000051
:100010004A0300004A0300004A0300004A030000AC
:100020004A0300004A0300004A0300004A0300009C
:100030004A0300004A0300004A0300004A0300008C
:100040004A0300004A0300005C0200004A0300006B
:100050004A0300004A0300004A0300004A0300006C
:100060004A0300004A0300004A0300004A0300005C
:100070004A030000400200004A0300004A03000057
:100080004A0300004A0300004A0300004A0300003C
:100090004A0300004A0300004A0300004A0300002C
:1000A0004A0300004A0300004A0300004A0300001C
:1000B0004A0300004A0300004A0300004A0300000C
:1000C0004A0300004A0300004A0300004A030000FC
:1000D0004A0300004A0300004A0300004A030000EC
:1000E0004A0300004A0300004A0300004A030000DC
:1000F0004A0300004A0300004A0300004A030000CC
:100100004A0300004A0300004A0300004A030000BB
:100110004A0300004A0300004A0300004A030000AB
:100120002C0300004A0300004A0300004A030000B9
:100130004A0300004A0300004A0300004A0300008B
:100140004A0300004A0300004A0300004A0300007B
:100150004A0300004A0300004A0300004A0300006B
:100160004A0300004A0300004A0300004A0300005B
:100170004A0300004A0300004A0300004A0300004B
:10018000000300004A0300004A0300004A03000085
:100190004A0300004A0300004A0300004A0300002B
:1001A0004A0300004A0300004A0300004A0300001B
:1001B0004A0300004A0300004A0300004A0300000B
:1001C0004A0300004A0300004A0300004A030000FB
:1001D0004A0300004A0300004A0300004A030000EB
:1001E0004A0300004A0300004A0300004A030000DB
:1001F0004A0300004A0300004A0300004A030000CB
:100200008FD220000EFF27000E01880000000000A2
:10021000000020000000E000020032000001200089
:1002200020028800140007007A0107000000E000A7
:1002300003003A00C0CC2400010020000200370077
:100240000000200001002000810F7000010032003A
:1002500014000700000020000000E000020032004F
:100260000000020000000000545E020000000000D8
:100270000040DA000000FE004440A900C02F20002A
:100280000000E00003003200002020009001880000
:100290004440A800000006008A1F78008B1F7800E9
:1002A00000000600A1028800800478000000EB0036
:1002B0001F003700E284440054A0B4009905BA003E
:1002C000E284440054A0B4009906BA00E2844400D9
:1002D00054A0B4000006EB00476FDE00FD07B2003B
:1002E000AE018800636CE10003003A00EAFF0700FA
:1002F0000000EB000E003700606CE10008003A00DF
:10030000004DEB000A05E800020039003420EC0043
:100310000AF0A0008B05E900F9FF3E000400370059
:100320006168E100010032000086EB000B0007006D
:1003300019C7BA001905BA000E04E00003003A001C
:100340000A00E000DBFF3A0000000600FE07B200F2
:10035000AE0288008A047800F5FF37000CD0A300B5
:10036000E20F4D001C00390089027800354DBA00BB
:100370000A05E800020039003420EC000AF0A00071
:100380008B05E9000F003200254DBA000A05E80090
:10039000020039003420EC000AF0A0008B05E900CF
:1003A000080032000C00E0000600320015CDBA0053
:1003B0000A05E800020039003420EC000AF0A00031
:1003C0008B05E9008984E80054A0B4000B00E0002C
:1003D000E2FF3A00000006009902BA00055D7800CD
:1003E0008B05E900F7FF3200C82ADE00055D7800C2
:1003F0008B05E900F3FF32000C00E000F1FF320052
:1004000019DDBA00EEFF3700604C04000000000068
:100410008C4C040000000000B84C040000000000F8
:10042000C24C040000000000B049040000000000BD
:10043000A24A0400000000002A4A04000000000054
:100440005C5B0400000000009A5B040000000000F8
:100450006E5B040000000000940704000000000030
:10046000C007040000000000EC07040000000000CA
:10047000B40F0400000000000000040000000000B1
:100480003200F8003400F800881F780018002000BF
:10049000A801880008202000980188004F047800F7
:1004A0000000FA008A60A9000080FA003400F90018
:1004B0003200F900004006003600F800809FBE00C0
:1004C000829FBE00849FBE00869FBE003200F8005F
:1004D0003400F80010002000A00188000020200057
:1004E000900188000200FA000040EB00004F780005
:1004F000360037001E80FB006A00B90080007800DB
:10050000E0B8200000804000100078000000E0000B
:100510002D0032001E81FB006A10B9000000780037
:10052000E6004000E0B82000008040001000BE005F
:1005300061004000E08048006A11B9008201780043
:1005400042B92000028141000089BE001E80FB00EC
:100550006A00B90000007800E6004000E0B8200022
:10056000008040001001BE001E80FB006A00B90040
:10057000000078008080E800E0B8200000804000A3
:100580001000BE00800F5100818F59000E003A000C
:100590001E80FB006A00B90080007800E0B82000EF
:1005A0000080400010007800000001001E80FB0069
:1005B0006A00B9008000780040B920000081400046
:1005C0006000B8000089BE001E4FE8001E407800A1
:1005D000E94F5000C7FF36008900A9000080FA00EB
:1005E0003400F9003200F9004F03BE004F02BE0094
:1005F0004F01BE004F00BE003600F900004006006B
:100600003600F800809FBE00829FBE00849FBE001F
:10061000869FBE003200F8003400F8001000200071
:10062000A001880000202000900188000000FA004E
:10063000481107000080FA003400F9003200F90088
:100640004F03BE004F02BE004F01BE004F00BE0070
:100650003600F900004006003600F800809FBE001A
:10066000829FBE00849FBE00869FBE000000FA00ED
:10067000242307008FC0A9000080FA004F03BE00AA
:100680004F02BE004F01BE004F00BE003600F90011
:10069000004006000040DA000000FE000A00FA00F8
:1006A00011002000B1BF9F00C0BF9F006A805700AB
:1006B0002E0707004FB897000080FA0000000600E0
:1006C0000A00FA0051002000B1BF9F00C0BF9F0088
:1006D0006A805700270707005FB897000080FA007C
:1006E00000000600889FBE0080047800206980001A
:1006F0000000E00004003A000E0007000084EB0058
:100700000000E00008003500286980000900E000D2
:100710000500320009004400060007000000E00068
:1007200001003D000084EB00080078004F04BE008B
:1007300000000600800078000100E00003003A009D
:100740000000200020698800000005000080EB0008
:1007500002002000828F500002003E0021698800C4
:100760000000EB00000006000A00FA0020079800D5
:100770003107980042079800CE009000010F7800E2
:1007800000408000FF0F500017003E000000EB000B
:100790001E003700AB2007000100370000000000FA
:1007A0001FC8BF000004E000FAFF3A00F00F20006D
:1007B0009E007800808F500003003E001E007800ED
:1007C000204798000200370000C0EB002047980047
:1007D0003E009000AE409000362007002E40900072
:1007E0000080FB001E0F10001E0078000000E000DB
:1007F000EAFF3A0001003700922007001FC8BF003F
:100800000004E000FCFF3A004E0090000080FA0077
:10081000000006000000050003F0A200889FBE0053
:100820008A9FBE008C1F7800C5000700CC003300F3
:100830006450E1004F0032006420E10052003200B9
:1008400003826C0007003B000905D0000306D000BE
:10085000820F54000C065D000200390002003200D5
:1008600089017800030678008582550004003D0068
:100870000003FD008103FD008502EA008B85420034
:10088000840F720002003B0060001000E08018003E
:100890006011B8000005EB007A28E1000A00390079
:1008A00006007800C75DDD00F707B200878075009D
:1008B0002D003700828171000A0178006105600017
:1008C0008180D1000080D3008502E900F9FF3B0060
:1008D000060440008784480002003B0060041400C6
:1008E000E0841C000988A300070032008A8171009F
:1008F00082817100610164008904D1000884D30001
:100900008B05E800170037000978A30013003A00B0
:100910000B00E000130034008B05E90008044400DC
:1009200089844C000A4474000978A3000D003A0041
:100930000B00E000070034008B05E90008044400C8
:1009400089844C0001003A000B0020000978A300C4
:10095000F7FF32000001EB000200370082817100D6
:100960000A017800500007000CF0A70001F0A00079
:10097000840037006420E10002003A00838F6C009D
:10098000840033000801BE000200BE007D00370075
:10099000889FBE008A9FBE008C1F780068000700F9
:1009A0006F00330003866C006450E1002E003200BB
:1009B0006420E100330032006150E1002F0032007A
:1009C0006120E1003100320085855500EB07B00061
:1009D0000900200008042000050037000804440036
:1009E00089844C000A0031000603430087834B00D2
:1009F0000001530081815B00F8FF33000203BE0059
:100A00000800A0000804440089844C00F6FF390067
:100A1000C639DD008301730001003200130020009D
:100A20008904D1000884D3000998A300050032008E
:100A30000800A7000300A0008904D1000884D300A7
:100A40008B05E8008904D1000884D3000001EB0085
:100A50000281D2001400070001F0A1000CF0A700F1
:100A600001F0A000470037006420E1004900320097
:100A70000801BE000200BE00F7FF37006120E10060
:100A8000440032006000B800F3FF3700000020008F
:100A900001F82700F0FF3700140020008400370021
:100AA0006011B8009D003700810020006180550072
:100AB0000B003D000B00200061FE2F000100E10053
:100AC0001D00340082817100610164008904D1003D
:100AD0000884D3000000E800FAFF3A00710020000B
:100AE0006100640003007000020060000900320031
:100AF00061044400E0844C000988A5000500320030
:100B00008B05E8006808E10002003A008904D10082
:100B10000884D300F20F20000258E10005003D00D8
:100B2000C75DDD00F907B200898075000800780014
:100B3000000006000BF827008B007800000005007D
:100B40000004BE00A40007000003BE000405BE00B0
:100B50000200BE00A0000700844F750000000600E0
:100B60000200BE006450E100050036006420E10090
:100B7000020036000968A30001003A000800BE0028
:100B80000160A0004F0678004F05BE004F04BE0074
:100B900000000600F0FF2F00F1FF2700F9FF3700EB
:100BA000889FBE008A9FBE008C1F7800E4FF07006C
:100BB000EBFF330003866C006450E1002400320038
:100BC0006420E100270032006150E1002200320081
:100BD0006120E100210032008B854200EB07B1006B
:100BE0000134B800003AB8000804420089844A0081
:100BF000013AB8000030B8008880400009014A007E
:100C000004003300000040008180480002014900D8
:100C10008B05E900C909DD00830170000100320085
:100C200013002000C814DE004814DD004709DE0070
:100C30001200B200C808DE00088470009AFF0700A6
:100C400001F0A1000CF0A70001F0A000CDFF3700DB
:100C50006120E100CFFF32000801BE000200BE00AB
:100C6000F7FF37006150E100FCFF3A00C9FF370091
:100C70006022B800060220000000D0008180D2006F
:100C80000482D2008582D2000000A000020252003D
:100C900083825A00030031000202420083824A002C
:100CA0000000A1000603E900F3FF3A00000006007F
:100CB000889FBE008A9FBE00841F7800A0FF0700A7
:100CC0004F00780011003300F0FF2F00838F6C007D
:100CD00006003B00040565000A00A7000800370075
:100CE00009F0A6001000200008003700820F540011
:100CF000838F5C00030039001000200001003E00DB
:100D00000000200009F0A7000000EA004F05BE0027
:100D10004F04BE000000E00000000600889FBE00F7
:100D20008A9FBE000082700004027100048271007C
:100D3000260032000004BE000200BE006011B800B0
:100D40006B092000950220000182CF000A003900C3
:100D50000541B1000082CF00070039000541B10014
:100D60000982CF00040039000541B1000882CF009C
:100D7000010039000541B100054252001200320065
:100D80000A003B0082817100610164008100D10092
:100D90000080D3008984D3000884D3008B05E80049
:100DA0000442E800F7FF3A00070037000804440057
:100DB00089844C0000004800818048008B05E900D0
:100DC0000442E900F9FF3A0037FF07004F05BE0073
:100DD0004F04BE0000000600C70ADE00F107B200A3
:100DE000F50FB20008003200E1CF420002003200ED
:100DF0000170A00024000500810F70000100320086
:100E00000408050044000500810F700002003A004C
:100E1000140005008502E9000000400081C0480080
:100E2000FCFF3B000170A000240005008001780059
:100E300002003700B15978000201E9000200E00029
:100E4000FCFF3A0000000600800178000200370035
:100E5000815978000201E9000200E000FCFF3A003D
:100E60000000060041AA2000B700070080007800BB
:100E70000080EB000100E0000400350041AA2000E2
:100E8000A0002000020007004F80DE0000000600E6
:100E9000889FBE008A1F78000004BE00C900900031
:100EA00069009000808F500005003900090078002B
:100EB0007C0107008080EB000000E0001600350098
:100EC000084578004900900008587800C004980050
:100ED0001900780000B8A30004003A0000A8A3009D
:100EE00007003200EA4F540005003A00090078007C
:100EF0005A0007008080EB000000E00006003A0086
:100F000000C020001900600002003200490090007B
:100F1000E00498008A80FB00010078004F0578000B
:100F20004F04BE0000000600889FBE000004780049
:100F300001007800820478008801780009017800B7
:100F400011002000C8000700890F50000100320086
:100F50000004EB00080078004F04BE00000006000B
:100F60000000FA00E88157004FB9970041AA20001D
:100F700040792000B50807000080FA000000060054
:100F8000881F78000204780008017800A7FF070096
:100F9000080040004F047800000006000000FA003E
:100FA000881F780000047800EA8157003FB9970055
:100FB00088007800007C2000A40807000000E00002
:100FC000020035008040EB00017478004F04780087
:100FD0000080FA0000000600889FBE000004780030
:100FE0000100780082047800880178000901780007
:100FF000110020009C000700890F50000100320002
:101000000004EB00080078004F04BE00000006005A
:101010000000FA00E88157004FB9970041AA20006C
:10102000C07E2000890807000080FA00000006004A
:101030008002780001037800110009000203D80043
:1010400080017800830A78000299B90002015300F8
:10105000920298000500780000000600889FBE00FC
:101060008A1F7800000478000800E0000D003A00B4
:1010700028AF2000700544008004EB005800780081
:101080000000E00004003200F4FF07000000E00070
:1010900001003D008084EB008A0F5400F7FF3A0006
:1010A0002500370000002200180060008004EB00DB
:1010B00021003200A80490000F0037000901510000
:1010C000384090000000FB0089007800A6FD070072
:1010D0000000E00007003C00280090004004980059
:1010E00060049800500C98001890A0008084EB00D9
:1010F000110037008084440048019000828F540022
:10110000EEFF390028009000400498009800780015
:1011100002C020000281600001003A003800900007
:1011200001E8A300020032006004980001003700CB
:10113000500C98008004EB00090078004F057800FF
:101140004F04BE0000000600889FBE008A9FBE00BC
:1011500080047800010478002C003700C80090005B
:1011600068009000808F500004003900080078006B
:10117000CC0007000000E0003700350000402000F0
:101180001800600009003200A1002000090078006A
:10119000BA000700800578000B00E0000300320071
:1011A000618514000A8545000400370009007800B5
:1011B000AC000700000578008005EB0048009000B7
:1011C000E8009000808050008A8F500002003100BB
:1011D000010578008005EB000A017800890078009D
:1011E00012FF0700480090000A00400040049800E9
:1011F0000B00E000040032000800780097FF0700B1
:101200000000E00014003A008A8444001904E00061
:10121000D2FF3A0000802000180060000600320073
:10122000080078008DFF0700800078000080EB0048
:101230000100E00009003A0001C020009880600031
:101240000000EB00050032004800900060049800A8
:101250000000EB00010037000080EB004F05BE00EE
:101260004F04BE0000000600889FBE008A9FBE009B
:101270008C9FBE008E1F7800000678000104780065
:1012800002007800830478000881B9000207780022
:101290000200E000420032000800E000410032009D
:1012A00082057800C900900069009000808F50008E
:1012B00004003900090078007A0007000000E0000F
:1012C0002900350000402000190060000A003200AB
:1012D0000B017800A10020000C0078004B000700F3
:1012E000800678000D00E00006003200610516005F
:1012F0000A854600040037000B0578008006EB00E5
:10130000010037000B05780049009000E9009000CB
:10131000808050008A8F5000020031000105780063
:101320008006EB000A0178008C007800BFFE070001
:101330008A855500490090000A004000C0049800CA
:101340000D00E000040032000900780043FF0700B0
:101350000000E00004003A000B00E0000200320050
:101360000A064600CFFF3700008020001900600009
:10137000020032000900780038FF070000C020009A
:10138000190060000200320049009000E00498005B
:101390008B055700110009008885D800010037002F
:1013A0000000EB004F0778004F06BE004F05BE005F
:1013B0004F04BE0000000600881F78008A9FBE0010
:1013C0008C9FBE00000478000205BE000406BE002B
:1013D0000401BE000A00BE004C040700008CBE00E1
:1013E0000C01BE00670507000005550081855D0002
:1013F0002A0498003B049800080078004F06BE00BD
:101400004F05BE004F0478000000060003003700BF
:10141000B0CF1000050032000201E9008001780021
:101420000200E000FAFF3A00000005000300780027
:1014300000000600020037000304E000060032004E
:101440000001780002007800B041780081CF51009F
:10145000F9FF3A00010037000001EB0002007800BC
:101460000000060080007800010178003104E000EF
:10147000FDFF3A0000005100000006000001EB00F3
:1014800000027800B041780081CF510001003A009D
:10149000040178000304E000F9FF3A00020078003C
:1014A00000000600889FBE008A1F780000047800B4
:1014B000C8009000680190000000EB00828F50008F
:1014C0003C00390018007800220029000201600069
:1014D000E20F510007003200012024000000E0006C
:1014E00001003D0001202000008C70000080EB0016
:1014F000300037000200260002006000820F50001A
:1015000009003A0038009000808F50000600390032
:1015100008007800D1FE0700800078000080EB0012
:101520000100E00023003A001805780000C0200008
:101530000000650018003A00A80490006002200036
:1015400008004000808F540013003A000020200063
:1015500052030700200498000000E00005003A0054
:1015600029049800490498008904E8003904980087
:10157000080037000A60A0000A0C780040049800B8
:10158000012020008080400031049800400C980029
:10159000500C980023020700280090005004980087
:1015A000380090006004980000002600180C7000BD
:1015B0000000EB004F0578004F04BE00000006005D
:1015C000889FBE0000047800E68440001900D00027
:1015D0004500DE00F27F2000820F500010003A002C
:1015E000000CEB00990478006F816400200020005B
:1015F0001B003A00210190000200E00018003A00B0
:10160000110190000200E00015003A0010002000D7
:101610001100E0001200320020002000100037000E
:101620000000E00004003A00010078006A020700B0
:101630000000E00008003C00F200280019016100F1
:1016400001FE2300810C710021C02F00010C40001D
:101650000080EB0002003700000CEB000000EB0004
:101660004F04BE0000000600FC874700889FBE00B4
:101670008A9FBE008C9FBE008E1F780000067800F7
:1016800080C5B30080CF50000A0032007740400090
:1016900080CF50000A0032006940400080CF5000E7
:1016A0000B00320030CD200080BF9F00AE00200034
:1016B0000A00370022CC200082BF9F0006003700BE
:1016C00033CD200083BF9F008E0020000300370031
:1016D00034CD200084BF9F000E0120003C02BE00DC
:1016E0002C03BE000605BE000404BE0040C6B300C5
:1016F00080CF5000030032006540400080CF500092
:101700000B003A00E00F5200E08F5A00E00F5B0040
:10171000E08F5B0006003D006000B8006011B8007B
:101720000404500085845800060559008785590037
:10173000E80F57000400320040002000F00F57006F
:1017400038003A000100370030002000E00F54005C
:10175000E08F5C00E00F5D00E08F5D0004003A0068
:10176000DC0890008D0120000100E000060032003E
:101770008E00E900888060008FBA9700E5C078008D
:10178000F1EF9F007D012000800078008100E900DA
:10179000050033008B05D1000A85D3008984D3006E
:1017A0000884D300F9FF3700089EBE000A96BE00E9
:1017B000120037008D06E9008E00E9008480600089
:1017C0000FB99700E2C1780082FD2F000F014100A0
:1017D00003F17E00800078008100E90005003300FD
:1017E0008783D1000683D3008582D3000482D3008F
:1017F000F9FF3700049EBE000696BE003C02BE0004
:101800002C03BE00E00F5200E08F5A00E00F5B0097
:10181000E08F5B008B0034000D00E000E5FF3C0032
:10182000880037002C60900081C6B300814F5000C3
:101830000B00320006003C000004E000080032000B
:10184000E6C05000814F50004E003A0004003700BF
:10185000C1C6B300814F50004A003A002100370052
:101860000800E00004003A005C0890008D012000B0
:101870000000E00006003200110009000E84D800CC
:101880000FB99700E2C07800F1EF9F007D012000C2
:10189000110009000E84D8000A0037001100090069
:1018A0000E04D8008D06E9000E81B9000204540030
:1018B0008FB8970061417C0081FD2F008F80400030
:1018C00082F07E00000478000800E0000200320090
:1018D0000D00E000F1FF3C00CFC4DE00614DB90017
:1018E00025003700E00F5400E08F5C0004003A0050
:1018F0005C0890008D0120000000E000070032002D
:101900006171B9000800BE001B0407008FB9970081
:10191000E3417800F3EF9F007D0120006171B90081
:101920000800BE00D2FC07000B0037006171B9004F
:101930000800BE00F50207008D06E90000F1B900BD
:10194000020454000FBA9700E4427C0084FD2F008B
:101950000F02420005F27E000004BE00E00F5000BE
:10196000E08F5800020032000D00E000EFFF3C0065
:101970004FCDDE008A057800089EBE000A96BE00A4
:1019800030003700E00F5400E08F5C00E00F5D0096
:10199000E08F5D0004003A005C0890008D0120009B
:1019A0000000E000090032006172B900612BB9004B
:1019B0000800BE000A01BE00980407000FBA970095
:1019C00064427800F4EF9F007D0120006172B9004D
:1019D000612BB9000800BE000A01BE0088040700A0
:1019E0000D0037006172B900612BB9000800BE001C
:1019F0000A01BE008D0407008D06E90000F2B9005F
:101A0000040454008FBA970065427C0085FD2F00C6
:101A10008F82420084F27E00009EBE000296BE00CD
:101A20003C04BE002C05BE00E00F5400E08F5C00BB
:101A3000E00F5D00E08F5D00020034000D00E0006B
:101A4000E8FF3C00E80F570010003A000C1090002F
:101A50000038A3000D003200F78F560006003E004C
:101A600085FD2F008F824200E5C07E0000C3B300D9
:101A700080CF5000050032008D06E90002C3B3009C
:101A800081FD2F008F80400082F07E00788116005B
:101A9000120E98006C00900083FD2F008F81410092
:101AA0008D804100E1FC07001C089000DC089000DC
:101AB000810F500006003D0000805000000E98008D
:101AC0000C1090000040A100001698000F00370095
:101AD0000100E0000D003D008C109000F4806000DB
:101AE000F08F500009003A007C099000FC00900043
:101AF000810051000C09900082805000008050004D
:101B00004240A90001003400000E98004F07780001
:101B10004F06BE004F05BE004F04BE00CF01B1000E
:101B2000000006000400FA00889FBE008A9FBE00E5
:101B30008C1F78000004780001067800F80D9000F2
:101B40007800900080855500080890008085550039
:101B50001808900080855500280890008085550061
:101B60003808900080855500480890008085550011
:101B70000002220090BF9F0000032300A0BF9F002F
:101B8000081090000028A30015003A000B00E000A8
:101B9000130034000B0578008A047800E20F55002A
:101BA0000100360029002000C801900009017800DA
:101BB000EE80570058009000030001005004980088
:101BC0000000E0008C00320068089000090040002E
:101BD000600C9800090555004240A900EEFF3C004A
:101BE000780190000200E0000C003400C801900071
:101BF0008C00780058009000030001005004980009
:101C00008080EB000000E0007C003200E8089000DB
:101C10007800900000804000600C9800880C9000D4
:101C20000900E0001100340009057800E28F54003B
:101C3000010036002A002000C80190000A01780047
:101C4000EC805700580090000300010050049800F9
:101C50000000E00068003200680890000A004000C0
:101C6000600C98008A845400EDFF3700180990003A
:101C70000200E0000C003400C8019000E800900071
:101C80005800900003000100500498008080EB0091
:101C90000000E00059003200E808900018089000A9
:101CA00000804000600C9800A80C90000900E00043
:101CB0001100340009057800E28F5400010036005D
:101CC0002A002000C80190000A017800EC8057002B
:101CD0005800900003000100500498000000E0004C
:101CE00045003200680890000A004000600C98002F
:101CF0008A845400EDFF3700380990000200E000AC
:101D00000E003400E8009000180890008080400029
:101D1000C801900058009000030001005004980092
:101D20008080EB000000E00034003200E808900002
:101D30003808900000804000600C9800C80C9000AB
:101D40000900E0001100340009057800E28F54001A
:101D5000010036002A002000C80190000A01780026
:101D6000EC805700580090000300010050049800D8
:101D70000000E00020003200680890000A004000E7
:101D8000600C98008A845400EDFF37000810900022
:101D90008000EB000028A300180032000B00E000D8
:101DA000160034008B04780009057800E28F540097
:101DB000010036002A002000C80190000A017800C6
:101DC000EE80570058009000030001005004980076
:101DD0000000E00008003200680890000A0040009F
:101DE000600C98008A8454004240A900EEFF3C0039
:101DF0008000EB00010037008080EB0001007800DC
:101E00004F0678004F05BE004F04BE000080FA0068
:101E100000000600010878000000060040FB2000DA
:101E200061003700881F780008D220001804E00005
:101E300003003A00F9FF070020C0B300004C78000F
:101E40004F04780000000600889FBE000004780060
:101E50000800780081FC070080047800000420005E
:101E6000180060000200320028009000A600070061
:101E70000000EB0020049800384090000004E000CF
:101E8000050035000000FB0004FA07000000E00038
:101E9000010032008084EB00181090000000E00088
:101EA0000800320006FA07000000E00001003200DE
:101EB0008084EB0018109000930007000000EB00F6
:101EC000101498000008200018006000150032006F
:101ED0000001EB006000B80043AF20000202D00018
:101EE00063027A00880F520005003A0000004000AB
:101EF00081804800008041000008EB0006003700A8
:101F000061004000E08048000201E800E80F500056
:101F1000E08F5800F0FF3A00080078007A000700D0
:101F20000E003700000C780000C0EB003044980031
:101F3000600220000800400020049800400498003F
:101F400050049800400C980060049800500C9800D1
:101F50007004980076004400000C98000900780096
:101F60004F04BE0000000600881F78000004EB004C
:101F70006140B800E2FF2F00F3FF2F00810207004D
:101F800022B02000620078000000E0000100320072
:101F9000ADFF07000804E800E80F5400F4FF3A0022
:101FA0004F04780000000600010020000100E0005E
:101FB00008003200010080000100E000050032004E
:101FC0008100E900010088008100D000020080004B
:101FD00000B1780000000600E60040001101780022
:101FE00005002800850261006F0161008208780009
:101FF000020032001200200011003700A001900002
:10200000120020000300E0000D003A009001900053
:102010000300E0000A003A001000E00008003A0067
:10202000360037006403400096087800800178008D
:10203000530B780090097800040878007001510073
:10204000110278000400E000F6FF320013003700B0
:1020500064024000140378004F33DE0083814100A6
:102060008308730080017800D3037800CF3BDE0043
:102070001403780006034300068A730013027800F5
:1020800004024200100378004F33DE00860972001C
:1020900090017800038841000201E9009101780075
:1020A000EF8F5100EAFF3600100037008001780002
:1020B000530378004F33DD001002D1000408730091
:1020C0006402400094037800CF3BDD001303D1008D
:1020D00086897300110378004F33DD009401D1002D
:1020E000030A73009108D1000201E8009101780011
:1020F000FF8F5100EDFF3E00EF8861009188720074
:1021000002007800000006000000E0002F0032000E
:10211000C0017800E38F51002C0036000308A300B3
:102120002A003A00F15F80000100E0000200320066
:10213000810F50000400310011009800F05F88000A
:102140001600370082007800110190000200E000C4
:1021500002003200800F5100FAFF390011027800AE
:1021600084824000850F500018003900808F520093
:1021700003003A008308420001007800070037009E
:102180000200E0000300320083014000830F510091
:102190000E00390012009800900098009000900006
:1021A0000100E0000900320010014000828F500061
:1021B00006003A00C2BF20000009EB0010017800C1
:1021C00011084100910090001100980000000600E5
:1021D000889FBE0000047800E15F80000100E000FD
:1021E00002003200010078000D003700F15F80002E
:1021F000E0BF200004003700910F54002500360096
:102200000180E800910090000100E000FAFF3A0030
:1022100010003700920F54001E0036000280E800C4
:10222000100178000200E000FAFF3A001101780086
:10223000F15F8000E0BF200004003700910F5400E0
:10224000140036000180E80091009000828F500059
:10225000FAFF3A0019698000888F540001003100AC
:102260008804780009007800360007000000E000CC
:1022700004003A00888F5400050032008904D10020
:10228000F5FF3700091878009FFF0700D2FF3700DD
:102290000000EB004F04BE0000000600881F78001D
:1022A000630440000800A1008000EB00800F540090
:1022B00021003600E30F540001003E0048002000DA
:1022C00008007800C2FF07008000EB000000E0007B
:1022D000190032009000780091017800648151006B
:1022E000880F5100030031001101900002087800AE
:1022F0000700370008814000020878009101900033
:102300001301980010017800110914008808780062
:10231000100178000000EB000200E0000400320031
:10232000920190000300E000010032000280E8000A
:10233000E05F88008180E800010078004F047800A9
:1023400000000600800078000000EB000100E000C3
:102350000500340001007800E2F80700E10F4000BA
:1023600001003A000000EB000000060000C0DA00A7
:102370000000060000C0DA00000006008F1FD10038
:10238000070307008F87E9000000E0000000060057
:10239000809FEB00020307008F87E9000000E00048
:1023A000000006002800FA00889FBE008A9FBE0039
:1023B0008C9FBE0003866B008F0007006400E10065
:1023C000440032006408E1004A0032006100E1008C
:1023D000460032006108E10049003200EC06470087
:1023E0006000B8003D02BE003D03BE00F486570009
:1023F0006011B8003D04BE003D05BE007D03200015
:102400000B0037000000A0008D06E9001300320029
:102410000402420085824A0006034B0087834B007A
:10242000000040008180480002014900838149008A
:102430000802520089825A000A035B008B835B000A
:10244000F0FF3B000802420089824A000A034B0069
:102450008B834B008D06E900EDFF3A008482720009
:1024600086827200F707B200878272000100320094
:10247000150020001E0490003E0B9000060354003F
:10248000E63FB0000368A300070032000000A70089
:102490000500A0008301D1000281D3008180D30018
:1024A0000080D3000603E8008301D1000281D3003D
:1024B0008180D3000080D3000002EB000482D200B0
:1024C0002100070003F0A1000CF0A70003F0A0001A
:1024D0005D003700640247006408E10057003200E5
:1024E0003400BE003401BE00F6FF37006108E10091
:1024F000520032006011B8006000B800F1FF3700F0
:1025000003FF270002002000FBFF3700839F6800C5
:102510000100E00002003D0060001000E0801800B3
:102520000300E00002003D0060011100E08119009D
:10253000CFF907004F00E00002003B0060001000F0
:10254000E08018000000060018002000570020005E
:10255000080453000D003D000600200097FC2F00EA
:102560000740E1001E0034008482720061026000B6
:102570008301D1000281D3008180D3000080D30089
:102580000804E800F8FF3A004700200061046000FA
:1025900005047400040464000D0032006100400072
:1025A000E080480060014900E081490003B8A500CF
:1025B000070032000603E8006538E10004003A0035
:1025C0008301D1000281D3008180D3000080D30039
:1025D000F87F20000830E100030035000803780090
:1025E0006000B8006011B8004433DD00F300B200B1
:1025F0008301730000000600680447000294BE00D7
:102600000094BE00FC0447008694BE008494BE0083
:1026100009007800AB02070008007800A902070053
:1026200099007800814F70000B003B000800BE004D
:10263000840207004F00B10003003700F3FF2700BA
:10264000F2FF2F006110B9004F06BE004F05BE001B
:102650004F04BE000080FA000000060081037800ED
:10266000DDF907000001BE006000B8000478A30097
:1026700013003A006220E10015003E000D00390011
:102680008301D1000281D3008180D3008301D10076
:102690000281D3008180D3008301D1000281D30065
:1026A0008180D3000538B000C42ADD00F300B200F9
:1026B0008381720007F0A70003F0A000000006006D
:1026C000F3FF2700F2FF2F006110B900FBFF370076
:1026D00003FF2700F7FF37001400FA00889FBE00B1
:1026E0008A9FBE008C9FBE000004BE000205BE0093
:1026F000680047000A90BE000890BE007102070003
:102700000070A7000BF0A100304320009E02900053
:1027100080825200B0FE2F000028E10011003D0031
:10272000B0FC2F000028E100150034001E099000C5
:102730008E0890007E0090000501B0000201D100DB
:102740008180D3000080D3008502E800FBFF3A00BF
:102750000B00E000BCFF3B0060001000E0801800B0
:10276000B9FF3700F0FF2F00F1FF27000B00E0005A
:10277000B5FF3B000100280000002000B2FF370039
:102780006000B800B0FF37004F89DE00820178009A
:1027900073023700000000002800FA00889FBE0086
:1027A0008A9FBE008C9FBE0003866B0092FF0700CD
:1027B0000028A30064003A000128A30067003A0043
:1027C0000008A30062003A000108A30065003A0077
:1027D0001E009000BE08900081064000ED3FB10051
:1027E000F4805700EE019000111AB8008E09900095
:1027F000311BB8009E099000311CB800511DB80073
:10280000F485570046000700FE0190003A000700DB
:102810008B85E8003E0007008E099000400007000D
:10282000EE019000340007008B85E80038000700B7
:102830008E099000400007009E0990001B18B80008
:10284000890440000A854800FE019000340007001A
:102850008B85E80038000700EE019000300007008B
:102860008E0990001B18B800890440000A854800B2
:102870000A98A30008003A000402420085824A0038
:1028800006034B0087834B0008044C0089844C00EE
:102890000A054D008D06E9008482720085027300EE
:1028A0004C3ADD0085027200010032001500200064
:1028B000443ADE001400B2004538DE00CB45DD00AE
:1028C0000B007000C540DE00CB4DDD008B8070003A
:1028D0004549DE00CB55DD000B017100C551DE001E
:1028E0000D03780018FF070003F0A1000CF0A7000B
:1028F00003F0A00054FF37001B18B8008502400009
:1029000006834800E0834B0060044C00070037005A
:102910001B18B8000603400087834800FAFF370001
:102920001B18B8008703400008844800E0844C006E
:1029300060054D00000006001B18B80008044000A8
:1029400089844800FAFF37000108A3003BFF3A00E2
:102950005800BE005801BE00E3FF37000008A30086
:1029600036FF3A0009047800F9FF37000000000044
:1029700007F0A2000C013700BDF807000400BE00FC
:1029800000000600020AB900001BB9000200B800EE
:10299000810042008100430000000600889FBE00C5
:1029A0008A9FBE0030044200B0844A0030054B00CC
:1029B00090854B006000B1000898BE000A90BE00F0
:1029C0000440E10005C8E10006D0E10007D8E100BD
:1029D00002003100680040001008E8004F05BE000A
:1029E0004F04BE0000000600889FBE008A9FBE0004
:1029F0003004BE002005BE000418540005985C0099
:102A000006185D0007985D00110020000440E100F9
:102A100005C8E10006D0E10007D8E1000100390057
:102A20008000EB00108810004F05BE004F04BE0070
:102A3000000006001200FA00889FBE008A9FBE00B8
:102A40008C9FBE00E0B79F00F1B79F0082BF9F0040
:102A500093BF9F000605BE000404BE000000EB000B
:102A6000D0B79F00C0B79F00B0B79F00A0B79F002E
:102A700090B79F000006EB005FB19700CFB09700C2
:102A8000820141003FB097000200E00004003D00D9
:102A9000370007007E805700C0FF070003003700A3
:102AA000330007007E805700CFFF0700DFB6970096
:102AB0000D00E0000C0035006FB29700FFB29700E8
:102AC0000FBB97009FBB9700100020000100200063
:102AD0006011B8000002720081827200020373006C
:102AE000838373001B0007000C06E800010420002C
:102AF000810F5600E0FF3A000D00E00004003D00A9
:102B00000802BE000A03BE007E805700A3FF070034
:102B10005FA897000000E00005003A001FB2970090
:102B2000AFB297003FB39700CFB3970009000700FB
:102B30006FB09700FFB097000FB997009FB997004B
:102B40004F06BE004F05BE004F04BE000080FA00D5
:102B5000000006000100070000000600A4B79F0067
:102B6000B5B79F00C6B79F00D7B79F00000006000B
:102B70004F09DE0082817100B3B79F004F01DE0074
:102B80008180400082807000A1B79F008FB09700C5
:102B90004F09DE00000040000200700090B79F0067
:102BA0007FA897004F01DE00818040008280700086
:102BB00081B79F000D0007004F3ADE000000400083
:102BC00004007000F0AF9F000800070004024200FC
:102BD00085824A0006034B0087834B00DFFF070016
:102BE0000802BE000A03BE00000006002FB29700D4
:102BF000BFB297004FB39700DFB397000000060005
:102C0000881F780018002000881F780089FF0700BF
:102C10008F87E9004F04780000000600801FEB005A
:102C200084FF07008F87E90000000600889FBE0030
:102C30008A9FBE00E00F5000E08F5800E00F59005F
:102C4000E08F59000C003D006044B8006055B800AA
:102C50000000540081805C0002015D0083815D0002
:102C6000180020001500070008003D0018000700AC
:102C70000004EB00050037000004EB000F00070024
:102C800002003D001200070018002000DCFF0700D2
:102C90000800E000060032006022B8006033B8008F
:102CA0000000520081805A0002015B0083815B00BA
:102CB0004F05BE004F04BE0000000600E00F5200AA
:102CC000E08F5A00E00F5B00E08F5B000000060021
:102CD0006044B8006055B8000402540085825C006E
:102CE00006035D0087835D0000000600889FBE002C
:102CF0008A9FBE008C1F7800E00F5000E08F5800C4
:102D0000E00F5900E08F59000D003D006044B8000D
:102D10006055B8000000540081805C0002015D0035
:102D200083815D001C0020000820E10009A8E1006B
:102D30000AB0E1000BB8E1000D003D0008003700CB
:102D40000006EB00E00F5200E08F5A00E00F5B003E
:102D5000E08F5B0006003D006044B8006055B8009D
:102D60000402540085825C0006035D0087835D00D9
:102D7000AAFF07000C00E000060032006022B80045
:102D80006033B8000000520081805A0002015B00ED
:102D900083815B004F0678004F05BE004F04BE00E4
:102DA00000000600000000002800FA00889FBE0016
:102DB0008A9FBE008C9FBE00070678008786690048
:102DC0000C003B00030478008704780008F0A100A1
:102DD00009F0A100840F5000858F5800860F59001C
:102DE000890F5C00030033000CF0A20001003A00E0
:102DF0000CF0A10000FE07006400E1005F0032005B
:102E0000780147006408E100610032006C0147006E
:102E1000748557003200BE001201BE003A04BE00A5
:102E20001A05BE001E039000BE0A900085035300E1
:102E300006003D000004FD008104FD000205FD00C8
:102E40008305FD008703EA00050378000DF8A30061
:102E50000400320060041400E0841C0060051D00C2
:102E6000E0851D006022B8007D0320000D38E100E0
:102E70008006EB000B0039004433DD00F300B200A4
:102E80008301730039003700848272000D027800DC
:102E9000E10664008B85D1000A85D3008984D300C4
:102EA0000884D3008703E900F7FF3B0008004000D7
:102EB000898048000A0149008B81490004003B00D9
:102EC00060001000E080180060011900E081190026
:102ED0000358A300090032008D82720084827200C0
:102EE000610260008301D1000281D3008180D300A0
:102EF0000080D3000603E8001B0037000348A3004E
:102F000017003A000600E000170034000603E9004D
:102F10000D00A30000004800818048000201490024
:102F2000838149000348A3000F003A000600E00037
:102F3000090034000603E9000000400081804800D9
:102F4000020149008381490001003A000003EB00BF
:102F50000348A300F5FF32006022B80002003700EA
:102F6000848272006182660077FD070003F0A10091
:102F70000CF0A70003F0A000B3FD37006401470088
:102F80006408E10002003A000DF8A300ABFD3A002E
:102F90003200BE001201BE00ABFD37000000000091
:102FA000889FBE008A9FBE008C9FBE000404BE00A6
:102FB0000605BE00809FBE00829FBE002F00070056
:102FC000040678000800BE000A01BE002B000700BE
:102FD000840678004F03BE004F02BE008D4F76007E
:102FE0007FB0970013003300F0FF2F008B8F6B0032
:102FF00006003B000D0666000C00A7000A00370023
:1030000007F0A600100020000A003700880F5200C9
:10301000898F5A008A0F5B008B8F5B000300390099
:103020001000200001003E000000200007F0A70073
:103030000000EA004F06BE004F05BE004F04BE0070
:1030400000000600E48240001078A3000700320070
:10305000640240001178A3003400BE001401BE00D9
:10306000040032000330A700000006003500BE0057
:103070001501BE000330A0000000060005FF270078
:1030800005826100070032000428E10001003200DF
:10309000240005000600070001003A004400050076
:1030A0000408050002000700F9FF3A0014000500BB
:1030B0006F826100810270008502710085027200DA
:1030C00000000600800078005002BE005003BE00E1
:1030D0004439DE00F700B200F37F200003016100F5
:1030E000090032000218E10016003A008501720062
:1030F00083017300838173000008200015003A00EB
:103100004000200013003700850172008301730026
:103110008381730005003A0004A8BE0006A8BE0023
:10312000100020000B0037000201E90004024200F9
:1031300085824A0006034B0087834B000748A300A3
:10314000F9FF32000740A00004A8BE0006A8BE0098
:1031500020002000800098009200980000000600E7
:10316000881F7800030478000300E00007003D009A
:1031700060001000E080180060011900E081190073
:1031800002003B0001F02D0003003700040007009F
:1031900008F0A70003F0A0004F047800000006002C
:1031A000889FBE00008270000402710004827100DA
:1031B0002400320036432000C50020008383CF0066
:1031C0000A0039000541B1008283CF0007003900B1
:1031D0000541B1008183CF00040039000541B100F1
:1031E0008083CF00010039000541B10085C3530041
:1031F0006022B800120032000A003B008482720094
:10320000610260008301D1000281D3008180D3007C
:103210000080D3000603E8008743E800F7FF3A0088
:10322000070037000000400081804800020149008B
:10323000838149000603E9008743E900F9FF3A006A
:10324000C1FC07004F04BE00000006006200FA0047
:10325000889FBE008A1F78000005780081047800EE
:10326000020478008300780080F92F000F004000EE
:10327000E8FA07009A979F00A9979F000000EB00CB
:10328000B09F9F001885FB008A04FB000A05EA0036
:103290004F55DE0050022000808F54000D00320098
:1032A000E10F55000B003A000A0178008800780011
:1032B0002F9097009F91970003000100A0979F0017
:1032C0000000E0008E0032003F9897000000E80008
:1032D000B09F9F000A04440050022000808F5400D9
:1032E000040032000900E000E6FF3A003F98970032
:1032F000840037000000EB00909F9F00809F9F009C
:10330000F0979F00E0979F00D0979F00C0979F0085
:103310000700370081CF200001005000000040006E
:10332000C1CE200061007800DF9897000100700096
:10333000D09F9F0088047800090478003845780001
:103340008A00FB0080CF20003AF807000000E00070
:10335000F0FF3A00A1C2B300814F55000E003A00C1
:10336000CF8897000180E900C08F9F00100078008F
:10337000C09F9F000000E00005003D000000EA0043
:10338000C09F9F005F9897000020A000D09F9F00E3
:103390000904E8000F003700C09F9F000000EB0009
:1033A00005003700F2FF2700820F500002003200B4
:1033B0006A01B9000280400009047800880478009E
:1033C000B900FB000103B100E98F5000F5FF3600A2
:1033D000C09F9F00E0C2B300984F1000020032006F
:1033E0000080EB0019003700A0C2B300D84F1000D6
:1033F00007003A00CF8897000180E900C08F9F0046
:1034000010007800A09F9F000804E800100037001B
:103410000000EB00A09F9F008800780005003700A7
:10342000F3FF2700830F5000020032006A02B90048
:103430000400410001047800880078003101FB009D
:103440000203B100E90F5100F5FF3600A09F9F0075
:10345000984478008900FB0040CE2000F5F7070073
:103460000000E000020032000804E800010037001C
:103470008044EB00C97F9F0080C6B30080CF54001A
:1034800004003A0098CF14000A003A006640500049
:1034900006003700C0C6B30080CF540005003A00D4
:1034A00098CF140003003A0065404000C07F9F00A1
:1034B0000804E8001801FB00E3FB2F008F814100A6
:1034C00081F92F008F804000A0F92F000F004000ED
:1034D000100007000000E00009003A00E1FB2F00A7
:1034E0008F804000A0F92F000F0040008DF90700E9
:1034F0000000E000020035000804E80061FF37002A
:103500000080EB004F0578004F04BE000080FA00F9
:1035100000000600889FBE008A1F78000004780023
:10352000824478000305780070C6B30080CF540051
:1035300021003C0000C0E90080CF5400D5003D00D0
:103540007240500080CF54003C0132000D003C001E
:103550006C40500080CF54004F013C0000C0E90097
:1035600080CF5400CB003D0050C2B30080CF540048
:10357000460132007C40400080CF540046013A00B2
:10358000C400370010C6B30080CF5400C100320021
:1035900004003C006940500080CF54003E013A00D6
:1035A0006900370030C6B30080CF540018003200E5
:1035B0000040E8000900370000C7B30080CF540086
:1035C0001001320008003C0000C0E90080CF540028
:1035D000D90032005C003C006540500080CF5400B0
:1035E0002D013A000F00370050C7B30080CF5400C0
:1035F000550032006340400080CF5400520032003A
:103600006540500080CF540023013A000B01370081
:103610001181E90082087800780090001275780026
:103620002301370028609000C2C6B300824F5000CB
:1036300007003A001101780064005100800878000A
:103640001000BE004F89DE008201780014003700B0
:1036500012C7B300824F500003003A0011027800F5
:103660006800520005003700A2C6B300824F500028
:1036700006003A00910278006880520080087800C5
:103680005001BE004000BE00050037001180E90077
:103690008008780010007800CF80DE006109B90052
:1036A000009CBE000294BE002862900085C6B30054
:1036B000854F52000D00320025C6B300854F5200E1
:1036C00004003A000000FB00CF80DE006109B90071
:1036D0000800370045C7B300854F52000300320091
:1036E000E6C24200854F520004003A00CF80DE005F
:1036F0006109B900009CBE000294BE003802BE0001
:103700002803BE0078009000D1C2B300E00F520041
:10371000E08F5A00E00F5B00E08F5B00080035008F
:10372000881090000118A30002003200B1C2B3005B
:10373000030037000108A3005100320001C2B300AA
:10374000017578004C00370028609000C2C6B300B5
:10375000824F500008003A001103780064005300C3
:10376000800878001002BE006033B8000400BE007C
:103770000601BE001400370012C7B300824F50008C
:1037800003003A009102780068805200050037007B
:10379000A2C6B300824F500006003A001103780021
:1037A00068005300800878005001BE004000BE0051
:1037B000050037001180E9008008780010007800CB
:1037C0008000EB006011B800009CBE000294BE00B7
:1037D0002862900085C6B300854F52000D0032006C
:1037E00025C6B300854F520004003A000080FB005C
:1037F0008000EB006011B8000800370045C7B30037
:10380000854F520003003200E6C24200854F52004D
:1038100004003A008000EB006011B800009CBE007C
:103820000294BE00081090000038A300140032007B
:103830003800BE002801BE00E00F5000E08F5800A5
:10384000E00F5900E08F59000D00320080C7B3002F
:1038500080CF54000300320080C5B30080CF5400F5
:1038600007003A007800900001C3B30001757800AA
:103870000000E800097578000000E8007004980076
:1038800078009000000545006A049800894078009F
:103890006700370028619000C0C4B300804F51001A
:1038A00006003A0091037800688053008008780091
:1038B0005001BE004000BE00050037001101780035
:1038C00064005100800878001000BE0063FB070010
:1038D000009CBE000294BE00B800900078009000EA
:1038E0000100E00002003D00D1C2B3000800370033
:1038F000881090000118A30002003200B1C2B3008A
:10390000030037000108A3000400320001C2B30025
:10391000017578000000E8007004980078009000BD
:10392000000545006A0498008900FB000800780043
:10393000650007006000370028619000C3C6B3002F
:103940001180E900834F5100220032000A003C0040
:10395000E4C15100834F51002500320083C1E800CB
:10396000834F510013003200E8C15100834F5100D2
:103970001E003A000A00370043C7B300834F5100CE
:103980001B003200E6C14100834F51001800320095
:10399000E9C15100834F510014003A00050037007F
:1039A0008008780010007800485C90000848780093
:1039B000410037008008780010007800680A900005
:1039C000CFA2DE00612BB9000498BE000690BE00B5
:1039D00039003700800878001000780068099000EE
:1039E000CF91DE000288BE00330037001180E9006D
:1039F0008008780010007800680C900008087800B3
:103A00002D0037001180E900800878001000780050
:103A1000CF80DE006109B900009CBE000294BE00A8
:103A200078009000000545006A04980081C7B30043
:103A3000080078000CF707001F0037001180E9002C
:103A400080087800100578006A049800D80C90006F
:103A50000900E00004003D000A00780081F607003C
:103A60008004780007003700090178008000EB002F
:103A70000A00780065F607000000E000010032004F
:103A80008A045000190C98000B0037007800900051
:103A900009757800060037007800900000054500A1
:103AA0000904E00001003A0059C2B300094D780052
:103AB0000000E800700498000000EB004F0578005B
:103AC0004F04BE00000006002F04B000889FBE0017
:103AD0008A9FBE008C9FBE008E1F78000007780072
:103AE00081F79F003E04BE002E05BE005E089000D8
:103AF0000000E00002003D0060002000500F980030
:103B00008E00780020FB2F000F004000ACF607006D
:103B1000E20F50000A003A0030002000100F980019
:103B2000B1C9B3000FF097008140400080B0200081
:103B3000E1CF50000D003E0040B020000B003700E8
:103B40000000E0000F00340030002000100F98004B
:103B5000B1C9B3000FF197008140410000B12000CE
:103B6000E1CF500001003E00C0B02000EE00900008
:103B7000B0487800B0687800104078009040980015
:103B8000F30037000000E00005003A0022FB2F00A0
:103B90000F014100001978008001EB00E7003700B9
:103BA0006022B8006033B8000800BE000A01BE0001
:103BB000F2F907000000E00001003D000BF0A20058
:103BC000705927009F9897000088B900026A280062
:103BD000130020004DFA0700640650009C9F9F00D0
:103BE00013003B0063061600C0FF2F0000066600AE
:103BF0008C01EA00939F9F004DB120000800BE0099
:103C00000A01BE00070037000C08A30003003200C1
:103C10003D02BE002D03BE00DFFA07000C86D10076
:103C2000E88646000C00E000F7FF3C001800370073
:103C30000C00E00018003200C0FF2F0000066600F4
:103C40009C9F9F004DB120006000B8000200200042
:103C500003FF2300070037000C08A3000300320015
:103C60003D02BE002D03BE00CBFA07000C86D1003A
:103C7000E88646000C00E000F7FF3C000002BE00B2
:103C80000203BE000800BE000A01BE00C5F907001D
:103C90000004BE000205BE00DE08900060C6B3004E
:103CA0000FF29700804F52000400320060002000A5
:103CB00062C4B300824F520002003A009F9A9700FC
:103CC0006A80420081004000F1B79F000103780044
:103CD000F30F53000200340037012000F7B79F00B4
:103CE00000C3B300C0779F0056FB2F000F034300B3
:103CF0000E007800A0B79F00060778003D0037004F
:103D00000800BE000A01BE0073FA07000006BE00EC
:103D10007FB1970068015100F2B79F004240A900AF
:103D20000C00340098FA07000002BE000203BE0037
:103D30000800BE000A01BE000DFB07006022B800AB
:103D400046782D007719240093FA07000004BE007E
:103D50000205BE00E80047008E0020000802BE00F9
:103D60000A03BE00B4B79F00C5B79F00D6B79F0037
:103D7000E7B79F000C01BE00010478000C0037007B
:103D8000A400200005002000C0FD2F000F0040000F
:103D900089F507006FA89700FFA897000FB197005B
:103DA0009FB1970005C3B300056441000001BE0048
:103DB000E00F5100E08F5900030034000E07E900C6
:103DC000E10F4700EEFF3A00880078003FB497000B
:103DD000CFB497005FB59700EFB5970002003700AA
:103DE00000C3B300806078000E07E900FCFF3B00D1
:103DF000688740007FB397000600E00007003400AA
:103E00006022B8006033B8000800BE000A01BE009E
:103E10005FF907000000E000B9FF3C000E037800E6
:103E20002FB7970051FB2F008F80400001035300F4
:103E30009F9B970067804300909F9F000200370080
:103E40000603E9000000E900010178008200780023
:103E500003C3B300B1CF1100F9FF3200909F9F0060
:103E6000DE09900061C6B3000FF29700814F520047
:103E70000300320061C4B300814F520002003A00D7
:103E80000000E8000A0037001000200051C6B3000F
:103E90008FF2970081CF5200050032000540780074
:103EA00050C4B2000080FB000000E9004F00DE00BB
:103EB00083014000868F51000100340086017800A4
:103EC0000300E0001D00350000C3B300868F5100E1
:103ED00006003D0062C279006940400041C3B30062
:103EE000814F520001003C00694050008300E9000E
:103EF0008100410001003700840178000302E900DD
:103F000001037800A142780080CF5200FAFF32000E
:103F100091C3B300814F500001003A00054BE80007
:103F20000400E00005003D000201E9008301E80013
:103F30001F9B97000603E800969F9F008FF3970052
:103F40008700FB001F9A97000E007800060007000C
:103F50004F0778004F06BE004F05BE004F04BE005D
:103F60002F04B10000000600F0874700889FBE00C4
:103F70008A9FBE008C9FBE008E1F780000047800D0
:103F8000814478000205BE00040678000B00E000C2
:103F900002003C001B0020006AD2200060C6B30073
:103FA00080CF54000E00320060C4B30080CF5400B4
:103FB0000B00320070C6B30080CF54000300320003
:103FC00070C4B30080CF540081003A00E40F460073
:103FD0007F00350058089000800F56007C003D009F
:103FE0000C06E80060C6B30080CF54001000320019
:103FF00060C4B30080CF54000D0032000810900060
:104000000038A30004003A0058089000808F550043
:1040100001003D005B0C9800580890000C00500017
:10402000500C980002003B000000EB00500C980080
:1040300018089000E80090000C00E00026003C000A
:1040400002C3B300827078000000E800100C9800F2
:10405000D80890000100E00003003C0088109000A8
:104060000138A30005003200E8009000E2C2B3006E
:10407000827078000000E800100C9800580890004A
:104080008C00EA00810F500001003D000006EA00AC
:104090008C00EA00210C9800000646005C0C980099
:1040A0008B0F5600010034000B0678003C0C980082
:1040B000E800900018089000008040000C01780093
:1040C0008A00780059F30700580890000C06500049
:1040D0004C0C9800900037008C8F550018003D0064
:1040E000008040000B0178008A0078004FF3070041
:1040F0001808900000804500100C98008B055600B1
:104100002B0C9800D80890000100E00003003C0050
:10411000881090000138A30006003200E8009000EB
:10412000E2C2B30082707800380890000000E80016
:10413000300C980058089000400C9800760037002A
:10414000008040000C0178008A00780037F30700F7
:104150001808900000004600100C98008C8555004F
:10416000D80890000100E00003003C008810900097
:104170000138A30005003200E8009000E2C2B3005D
:10418000827078000000E800100C98005808900039
:10419000808F55000100340080057800E800900011
:1041A00018089000008040008C0045000B0178004A
:1041B0001EF30700180890000B004000100C980038
:1041C000580890008B0550002B0C980052003700C7
:1041D00018089000E80090009A7078000000E8004D
:1041E000100C9800D80890000100E00003003C008B
:1041F000881090000138A30005003200E80090000C
:10420000E2C2B300827078000000E800100C980051
:10421000580890000000E000100034008B05E90011
:10422000808F55000100340080057800E800900080
:1042300018089000008040008A00E8000B01780018
:10424000FAF20700180890000B004000100C9800CC
:10425000580890008B0550002B0C9800E800900047
:104260001808900000804000095878000007E80016
:104270000C00E00004003500B1C2B3000148780032
:104280008E04780004003700D1C2B30001487800E2
:104290008E0478000C06EA007D8557008006EB004E
:1042A00009003700A20020008C00780072805700BF
:1042B0005FF307007FB097008FB89700016D78001B
:1042C000000678008D06E8000C00E000F5FF3C00D9
:1042D0000D00E00009003A008E04780000C3B3002E
:1042E000805C7800050037008D06E900FC805700EF
:1042F00061C07E0002C3B300825C40000D00E0009C
:10430000F9FF3C00E8009000180890000080400091
:1043100080845400390C98000810900074006000EC
:10432000F00F50000E003A009808900078009000BE
:1043300000804000A808900001004000B8089000EC
:1043400001004000C808900001004000F8089000FB
:10435000810F500002003D0000805000000C9800CA
:104360004F0778004F06BE004F05BE004F04BE0049
:104370000F01B1000000060010000000B04900006D
:10438000A24A00002A4A00001B5B0000324A0000DB
:10439000001B00005B3000003B30000066000000A6
:1043A0001B5B00003F320000356C0000002D000058
:1043B0002D2D00002D2D00002D2D00002D2D000095
:1043C0002D2D00002D2D00002D2D00002D2D000085
:1043D0002D2D00002D2D00002D2D00002D2D000075
:1043E0002D2D00002D2D00002D2D00002D2D000065
:1043F0002D2D00002D2D00002D2D00002D2D000055
:104400002D2D00002D2D00002D2D00002D2D000044
:104410002D2D00002D2D00002D2D00002D2D000034
:104420002D2D00002D2D00002D2D00002D2D000024
:104430002D0D000000500000494300003234000000
:10444000462000004C43000044200000437500005B
:10445000726900006F730000697400007920000029
:1044600044650000766500006C6F0000706D000010
:10447000656E000074200000426F00006172000051
:1044800064200000446500006D6F000020200000E3
:10449000202000002020000020200000202000001C
:1044A000202000002020000020200000202000000C
:1044B0002020000020200000200D000000530000FC
:1044C000312000002D200000636F00006E7400009A
:1044D000726F00006C730000204C00004544000027
:1044E000312C000020630000686100006E6700004E
:1044F00065730000206100006374000069760000AD
:10450000652000005247000042200000636F000059
:104510006C6F0000720D000000530000322000009C
:104520002D200000636F00006E740000726F0000A9
:104530006C730000204C000045440000322C000049
:1045400020630000796300006C65000020770000A4
:10455000686100007420000069730000206F000093
:104560006E2000004C4300004420000064690000FD
:10457000737000006C610000790D000000500000B5
:104580006F740000656E0000746900006F6D0000BC
:104590006574000065720000202D0000206300009B
:1045A0006F6E0000747200006F6C000073200000DA
:1045B000616300007469000076650000205200000D
:1045C00047420000206300006F6C00006F72000023
:1045D000206900006E740000656E000073690000C1
:1045E000747900000D0000000D0000001B5B00004E
:1045F000383B000030660000005000006F7400007F
:10460000656E0000746900006F6D00006574000045
:10461000657200003A200000256900002F34000078
:10462000303900003520000020200000200D00005F
:104630000A0000004375000072720000656E000001
:1046400074200000636F00006C6F00007220000097
:10465000287200002C6700002C620000293A00003C
:1046600020250000692C000020250000692C000096
:1046700020250000692000002020000020200000EC
:10468000202000002020000020200000200D00003D
:104690000A000000416300007469000076650000B4
:1046A000206300006F6C00006F7200003A20000071
:1046B0000072000065640000202000000D00000072
:1046C00067720000656500006E0D0000006200006A
:1046D0006C750000652000000D00000054650000AE
:1046E0006D7000006572000061740000757200005A
:1046F000653A0000202500002E32000066200000F0
:104700004320000020200000202000002020000086
:104710002020000020200000202000002020000099
:104720002020000020200000202000002020000089
:104730002020000020200000202000002020000079
:104740002020000020200000202000002020000069
:104750002020000020200000202000002020000059
:104760000D0A00000044000061740000652F000085
:10477000546900006D6500003A20000025300000FB
:10478000346900002F25000030320000692F00003E
:104790002530000032690000202500003032000082
:1047A000693A000025300000326900003A25000017
:1047B0003032000069000000120100000002000019
:1047C0000200000000080000D80400000A000000F9
:1047D00000010000010200000001000009020000C9
:1047E000430000000201000000C000003209000088
:1047F00004000000000100000202000001000000AF
:104800000524000000100000010400002402000044
:10481000020500002406000000010000052400003D
:10482000010000000107000005810000030A0000EC
:10483000000200000904000001000000020A00005C
:104840000000000000070000050200000240000018
:104850000000000007050000820200004000000088
:1048600000000000040300000904000034030000FD
:104870004D000000690000006300000072000000AD
:104880006F00000063000000680000006900000085
:1048900070000000200000005400000065000000CF
:1048A00063000000680000006E0000006F00000060
:1048B0006C0000006F00000067000000790000003D
:1048C00020000000490000006E00000063000000AE
:1048D0002E0000001A0300005000000072000000CB
:1048E0006F0000006400000075000000630000001D
:1048F00074000000200000004E0000006100000075
:104900006D00000065000000EEA3000032A400006E
:1049100036A400006AA400002530000034690000BD
:104920000025000032690000002500003032000040
:1049300069000000252E0000336600000000000022
:10494000000300000306000001040000060200004E
:104950000500000003050000200100000F0000001A
:10496000000000005C5B00009A5B00006E5B0000D2
:104970000200FA00A2C0A900C4E6A8000080EB0073
:10498000703088000080EB00503088002A26EF004D
:10499000420020008000EB00C06220002AF10700E6
:1049A00020002000303188002826EF000646A900AC
:1049B000F009200080308800F00920006030880075
:1049C00002C6A8000806A80000C020004800DE00BB
:1049D000C03088000040EB00004F7800070037002F
:1049E0001E80FB00C200DD0000C0200000814000EE
:1049F0006000B8000089BE001E4FE8001E4078002D
:104A0000EB4F5000F6FF36001426A8001626EF00E4
:104A100014A6A9001426A9008000200050308800A8
:104A200000CA20008040EB000148780060CA2000E6
:104A30008040EB000148780070CA20009040780068
:104A4000E0C060000148780080CA200090407800F3
:104A5000E0C06000014878005030800068006000CD
:104A60000000E000ECFF3A0010C0B30013E8B7000C
:104A700010C0B30014E8B7001568EF001668EF0027
:104A80000D68EF000040EB00004F78001500370084
:104A90001E80FB008000400080C920000080400094
:104AA0008000EB00010878001E80FB0080004000C1
:104AB00020C92000008040008000EB000108780041
:104AC0001E80FB00B1CA20000041EB00827078001C
:104AD0001E80FB00E1CA20000041EB0082707800DC
:104AE0001E4FE8001E407800E24F5000E8FF3600FD
:104AF00080C02000C0648800D000200050318800B1
:104B000010CB20001060880000C0200081C0B300DE
:104B10000148780010C0200041C0B300014878006F
:104B200010C0200010407800804078000174A00080
:104B300010C02000014878000268EF001828EF003C
:104B40001A28EF001C68EF000028EF000080FA0030
:104B5000000006000200FA0000408000E10F500053
:104B60000B003A00A13080000004200000806000AB
:104B70000000E00006003A000080EB0050308800A2
:104B80000C06A8000C86A800200020000040880029
:104B900000308000700060000000E000070032007C
:104BA00010308000700060000000E0000300320060
:104BB0000001200000308800BC0407004030800065
:104BC000620060000000E0000200320092C0A90014
:104BD000A100370050308000610060000000E0005C
:104BE0000A00320060308000610060000000E000D8
:104BF000060032005EFF0700A2C0A80040002000AF
:104C000000408800100020005030880050308000A4
:104C1000700060000000E00005003200603080009D
:104C2000700060000000E000010032009204070004
:104C30000130800000042000008060000000E000DF
:104C4000030032000004200000308800EE06070058
:104C500050308000640060000000E000140032006A
:104C600060308000640060000000E000040032005A
:104C7000120020008000EB0030072000701C0700AD
:104C8000400020005030880011C8BF000004E00040
:104C90000300320011C8BF000040E90011E8B7006E
:104CA00011C8BF000004E00001003A00A3010700A2
:104CB0005130800000082000008060000000E0000B
:104CC0000600320061308000000820000080600093
:104CD0000000E000010032004B040700503080006B
:104CE000620060000000E0000C00320060308000D4
:104CF000620060000000E0000800320012002000A6
:104D00008000EB00F0FF27004D1C07000080EB0047
:104D10007030880020002000503088000040800063
:104D2000E30F500002003E0092C0A9004A00370085
:104D300060308000680060000000E0004500320044
:104D40000040EB00004F78003D00370050308000FD
:104D5000680060000000E0003D00320090308000FC
:104D6000004078000EE8B7000EC8BF000080FB00CE
:104D70004400DE00004078000FE8B700800020000B
:104D8000503088000EC8BF00684060000004E0009A
:104D900011003A000FC8BF000081FB008080FB00BB
:104DA000E0CA2000008040009040780061C06000B0
:104DB0000004A200E1406000E0CA200000004100C1
:104DC000E1C06000104178000204A1008140710040
:104DD00001487800100037000FC8BF000081FB00B9
:104DE0008080FB00B0CA2000008040009040780026
:104DF00061C060000004A200E1406000B0CA200071
:104E000000004100E1C06000104178000204A100F0
:104E100081407100014878000FC8BF000004E00025
:104E200002003A002D040700040037000001EB00E7
:104E3000E180200020072000011C07001E4FE80031
:104E40001E407800E34F5000C0FF360001003700DD
:104E50000000000092C0A9000080FA0000000600D7
:104E60000400FA0020479800314798003E40900027
:104E70000080FB00680060000000E00003003200DA
:104E80008040EB002E4090009B0107003E409000C8
:104E90000080FB00640060000000E00003003200BE
:104EA00011C0B3002E40900093010700A1622000C2
:104EB0002E4090000080FB0000004000008F40006A
:104EC0001E007800BE409000014878000080FA0083
:104ED000000006000800FA002047980031479800BB
:104EE00022079800634798003E4090000004E000CD
:104EF000070032002E4090000080FB008000400040
:104F000080C9200000804000100F780006003700A4
:104F10002E4090000080FB008000400020C920004F
:104F200000804000100F78001E0078000000E000B4
:104F300002003A000000EB0037003700AE0090009E
:104F40001E007800110098001E007800EE409000CE
:104F5000014878001E0078001040900002C4B300A1
:104F6000824060001E007800114098001E0078000A
:104F700010409000804078000134A0001E007800AE
:104F8000114098001E00780010409000804078008A
:104F90000174A0001E007800114098003E4090006F
:104FA0000004E0000E0032002E4090000080FB0064
:104FB000AE4090008180FB000181400081C920004B
:104FC00081004100910078000120A2000001400012
:104FD00080C9200000004100010878000D00370062
:104FE0002E4090000080FB00AE4090008180FB00CE
:104FF0000181400021C9200081004100910078001A
:105000000120A2000001400020C920000000410052
:10501000010878001E0078000080FA0000000600F9
:105020000400FA0020479800314798002E40900075
:105030000004E00017003A003040800081C0B30057
:10504000014878003040800011CB2000110098000A
:1050500030408000C1C0B300114098003040800053
:1050600031408000914090000174A00011409800F0
:10507000C064800041C0B30011409800C06480004B
:10508000C1648000914090000174A000114098001C
:105090002E0037002E4090000080FB0000004000F2
:1050A000800078003E4090000080FB0000804000BF
:1050B0004300DD008000780000C02000008F400029
:1050C0001E00780010409000804078000124A0006D
:1050D0001E007800114098001E00780010409000DB
:1050E000804078000174A0001E00780011409800F4
:1050F0002E4090000080FB000000400080007800FF
:105100003E4090000080FB00008040004300DD0036
:10511000E400400000C02000008F40001E00780026
:1051200010409000804078000124A0001E0078000C
:10513000114098001E0078001040900080407800D8
:105140000174A0001E007800114098000080FA0051
:10515000000006000200FA00004F7800A130800035
:1051600000022000008060000000E00051003200DA
:105170001E80FB008000400080C9200000804000AD
:10518000100278001E80FB008000400080C92000D3
:1051900000804000100078001001BE0000042000D4
:1051A000010020008202780003017800800178006D
:1051B0000100780083826200000061008000EB0043
:1051C000C000DD00000020000001BE006128B80022
:1051D0000001710081817100028ABE001E80FB0007
:1051E0008000400080C9200000804000100278004C
:1051F0001E80FB008000400080C92000008040002D
:10520000100078001001BE00000420000100200002
:105210000000690081806900008ABE001E80FB00DA
:105220009E80FB000181400081C920008100410077
:10523000910078000120A2000001400080C92000F8
:1052400000004100010878001E80FB008000400043
:1052500080C9200000804000900078001E80FB0084
:105260000001400080C920000000410010007800CB
:10527000104090000044B200904098001E80FB0057
:105280008000400080C9200000804000900078002D
:105290001E80FB000001400080C92000000041008A
:1052A000100078001041900000C4B3000040690075
:1052B000904098000080FA00000006000000FA000C
:1052C0001426EF000C26EF000028EF000080FA0003
:1052D000000006000000FA00004080000000E0002E
:1052E00014003A001426EF000C26EF0020002000E6
:1052F000303188002826EF000646A900F00920007A
:1053000080308800F00920006030880002C6A800C4
:10531000A2C0A800010037001406A800A030800039
:10532000610060000000E000FBFF32001000200080
:10533000004088000080FA00000006000000FA002B
:1053400013C8BF000004A2000004E00034003200D3
:1053500010C0B30013E8B70014C8BF000004A200D7
:105360000004E0002E00320010C0B30014E8B700C3
:1053700009C8BF00E24F50000C003A00C064800032
:105380008040EB0001487800C064800081C4B30015
:1053900011409800C0648000C1648000914090007A
:1053A0000174A000114098001D00370009C8BF001B
:1053B000E14F50001A003A001068EF0020408000D2
:1053C00081C0B300014878002040800011CB20004C
:1053D000110098002040800041C0B30011409800A7
:1053E0002040800021408000914090000174A00086
:1053F0001140980010C0B30010E8B70030408000A2
:1054000081C0B300014878003040800011CB2000FB
:10541000110098003040800001C8B300114098008E
:105420000080FA00000006000000FA001568EF0096
:105430001668EF0009C8BF00E24F50000F003A00A5
:105440003040800081C0B3000148780030408000C7
:1054500091CB2000110098003040800081C4B3003F
:105460001140980030408000314080009140900011
:105470000174A000114098001D00370070CB20007F
:105480001080FB0081CB20009180FB00C808DD006C
:10549000010070008000780010658000808F50004F
:1054A0000700310070CB20001080FB0081CB200072
:1054B0009180FB00C808DD000100700010658800C5
:1054C00096000700C064800091CB20001100980076
:1054D000C064800081C4B30011409800C0648000A3
:1054E000C1648000914090000174A00011409800B8
:1054F0000080FA00000006000400FA00204798002F
:105500003147980000C02000000F78002E40900026
:105510000080FB0000004000800078003E409000CA
:105520000080FB00008040004300DD001E0F4000B3
:105530001E0078009000780001F0A10001087800BA
:105540003E4090000004E00007003A002E4090002A
:105550000080FB008000400020C920000080400047
:105560001E087800060037002E4090000080FB00E7
:105570008000400080C92000008040001E087800A4
:105580001E0078009000780001E0A100010878007A
:105590009E007800648040009000780001E0A00048
:1055A000010878000080FA00000006000000FA0000
:1055B00014A6A9000165800000082000008060009A
:1055C0000000E00027003A0060CA20009040780008
:1055D00000C8B30000C060000004E0000A00320010
:1055E00020C0B30009E8B70016C8BF000004A2003D
:1055F0000004E000010032008BFF07001468EF0098
:105600001368EF00430037003040800081C0B300D2
:10561000014878003040800011CB20001100980034
:1056200030408000C1C0B30011409800304080007D
:1056300031408000914090000174A000114098001A
:10564000C064800041C0B30011409800C064800075
:10565000C1648000914090000174A0001140980046
:105660002C00370010CB20009040780000C8B30019
:1056700000C060000004E0000F00320010C0B30062
:1056800009E8B70015C8BF000004A2000004E0004C
:105690000100320064FF07001468EF001368EF0098
:1056A00012C8BF000004A2000004E000190032008C
:1056B00022FF07001700370020C0B30009E8B70039
:1056C0003040800081C0B300014878003040800045
:1056D00011CB2000110098003040800041C0B30081
:1056E000114098003040800031408000914090008F
:1056F0000174A000114098001468EF001368EF00D7
:1057000012C8BF000004A2000004E0000100320043
:105710000AFF07000080FA00000006000200FA00FD
:1057200080C0B300004F780010658000E70F500084
:105730000D003E0010658000004F780008C8BF00D3
:105740000004E00003003A0010C0B30008E8B7000E
:105750000500370008C8BF00E14F500002003A00C2
:1057600020C0B30008E8B700116580001E80FB0070
:105770000080500010658800C06480001E487800DA
:1057800090CB2000504088000065800061006000E0
:105790000000E00017003A00090037005140800087
:1057A000F064800010417800824878008100E800B1
:1057B000514088000000E800F06488001E4FE900B6
:1057C0001E4078000004E000F4FF3A000C003700AF
:1057D00051408000F06480001041780082487800D9
:1057E0008100E800514088000000E800F064880073
:1057F0001E4FE9001E4078000004E000F4FF3A006C
:105800000080FA00000006000200FA00204080003C
:10581000104F78009E80FB0070CA20001080FB00B3
:1058200082CA20001281FB004811DD0002007000D6
:10583000808F50000700360070CA20001080FB00E7
:1058400081CA20009180FB00C808DD0001007000C3
:10585000004F780070CA20001080FB0081CA200031
:105860009180FB00C808DD00010070008000780016
:105870001E80FB0000805000F10F2000010160003D
:1058800071CA200091417800E0C1610002C171003D
:1058900082487800C800DE0080CA200010417800ED
:1058A0006041610081407100014878000040EB00D8
:1058B000104798001C00370040CA20001080FB00F1
:1058C00051CA20009180FB00C808DD000100700073
:1058D0009E4090008180FB0092CB2000E2C07800C7
:1058E000014878000000E800F10F2000010160008D
:1058F00041CA200091417800E0C1610002C17100FD
:1059000082487800C800DE0050CA200010417800AC
:105910006041610081407100014878001E409000A4
:105920000040E800104798001E4090009E4F500035
:10593000E1FF390070CA20001080FB0081CA2000FE
:105940009180FB00C808DD00010070000000E0004D
:105950001E0032003040800081C0B3000148780052
:105960003040800091CB2000110098002040800042
:105970009000780000002400008060000000E0003B
:1059800009003A003040800081C4B3001140980003
:105990003040800031408000914090000174A000B0
:1059A000114098002F0037003040800081C0B300C4
:1059B00011409800304080003140800091409000BC
:1059C0000174A0001140980026003700304080008C
:1059D00081C0B300014878003040800011CB200026
:1059E000110098003040800041C0B3001140980081
:1059F0003040800031408000914090000174A00050
:105A00001140980090CA20001080FB00A1CA20001D
:105A10009180FB00C808DD00010070000000E0007C
:105A20000700320090CA20001080FB00A1CA2000AD
:105A30009180FB00C808DD0001007000000001003B
:105A400060CA2000904078000174A10001487800ED
:105A500012C8BF000004A2000004E00001003200F0
:105A600036FE07000080FA00000006000200FA007F
:105A7000006580000070A0000065880042002000E2
:105A80008000EB00C0622000EFEC07000203200062
:105A90008000EB0000C02000EBEC07001426A800FB
:105AA0000040EB00004F7800090037001E80FB002B
:105AB000B1CA20000041EB00827078001E80FB001C
:105AC000E1CA20000041EB00827078001E4FE80020
:105AD0001E407800E24F5000F4FF36002200200004
