:020000040000fa
:080000000001040000000000f3
:020000040000fa
:0400080004020000ee
:020000040000fa
:04000c0046020000a8
:020000040000fa
:040010008602000064
:020000040000fa
:0400140024020000c2
:020000040000fa
:04001800660200007c
:020000040000fa
:04001c00c602000018
:020000040000fa
:04002000a602000034
:020000040000fa
:04002400c602000010
:020000040000fa
:04002800c60200000c
:020000040000fa
:04002c00c602000008
:020000040000fa
:04003000c602000004
:020000040000fa
:04003400c602000000
:020000040000fa
:04003800c6020000fc
:020000040000fa
:04003c00c6020000f8
:020000040000fa
:04004000c6020000f4
:020000040000fa
:04004400c6020000f0
:020000040000fa
:04004800c6020000ec
:020000040000fa
:04004c00c6020000e8
:020000040000fa
:04005000c6020000e4
:020000040000fa
:04005400c6020000e0
:020000040000fa
:04005800c6020000dc
:020000040000fa
:04005c00c6020000d8
:020000040000fa
:04006000c6020000d4
:020000040000fa
:04006400c6020000d0
:020000040000fa
:04006800c6020000cc
:020000040000fa
:04006c00c6020000c8
:020000040000fa
:04007000c6020000c4
:020000040000fa
:04007400c6020000c0
:020000040000fa
:04007800c6020000bc
:020000040000fa
:04007c00c6020000b8
:020000040000fa
:04008000c6020000b4
:020000040000fa
:04008400c6020000b0
:020000040000fa
:04008800c6020000ac
:020000040000fa
:04008c00c6020000a8
:020000040000fa
:04009000c6020000a4
:020000040000fa
:04009400c6020000a0
:020000040000fa
:04009800c60200009c
:020000040000fa
:04009c00c602000098
:020000040000fa
:0400a000c602000094
:020000040000fa
:0400a400c602000090
:020000040000fa
:0400a800c60200008c
:020000040000fa
:0400ac00c602000088
:020000040000fa
:0400b000c602000084
:020000040000fa
:0400b400c602000080
:020000040000fa
:0400b800c60200007c
:020000040000fa
:0400bc00c602000078
:020000040000fa
:0400c000c602000074
:020000040000fa
:0400c400c602000070
:020000040000fa
:0400c800c60200006c
:020000040000fa
:0400cc00c602000068
:020000040000fa
:0400d000c602000064
:020000040000fa
:0400d400c602000060
:020000040000fa
:0400d800c60200005c
:020000040000fa
:0400dc00c602000058
:020000040000fa
:0400e000c602000054
:020000040000fa
:0400e400c602000050
:020000040000fa
:0400e800c60200004c
:020000040000fa
:0400ec00c602000048
:020000040000fa
:0400f000c602000044
:020000040000fa
:0400f400c602000040
:020000040000fa
:0400f800c60200003c
:020000040000fa
:0400fc00c602000038
:020000040000fa
:04010000c602000033
:020000040000fa
:04010400c60200002f
:020000040000fa
:04010800c60200002b
:020000040000fa
:04010c00c602000027
:020000040000fa
:04011000c602000023
:020000040000fa
:04011400c60200001f
:020000040000fa
:04011800c60200001b
:020000040000fa
:04011c00c602000017
:020000040000fa
:04012000c602000013
:020000040000fa
:04012400c60200000f
:020000040000fa
:04012800c60200000b
:020000040000fa
:04012c00c602000007
:020000040000fa
:04013000c602000003
:020000040000fa
:04013400c6020000ff
:020000040000fa
:04013800c6020000fb
:020000040000fa
:04013c00c6020000f7
:020000040000fa
:04014000c6020000f3
:020000040000fa
:04014400c6020000ef
:020000040000fa
:04014800c6020000eb
:020000040000fa
:04014c00c6020000e7
:020000040000fa
:04015000c6020000e3
:020000040000fa
:04015400c6020000df
:020000040000fa
:04015800c6020000db
:020000040000fa
:04015c00c6020000d7
:020000040000fa
:04016000c6020000d3
:020000040000fa
:04016400c6020000cf
:020000040000fa
:04016800c6020000cb
:020000040000fa
:04016c00c6020000c7
:020000040000fa
:04017000c6020000c3
:020000040000fa
:04017400c6020000bf
:020000040000fa
:04017800c6020000bb
:020000040000fa
:04017c00c6020000b7
:020000040000fa
:04018000c6020000b3
:020000040000fa
:04018400c6020000af
:020000040000fa
:04018800c6020000ab
:020000040000fa
:04018c00c6020000a7
:020000040000fa
:04019000c6020000a3
:020000040000fa
:04019400c60200009f
:020000040000fa
:04019800c60200009b
:020000040000fa
:04019c00c602000097
:020000040000fa
:0401a000c602000093
:020000040000fa
:0401a400c60200008f
:020000040000fa
:0401a800c60200008b
:020000040000fa
:0401ac00c602000087
:020000040000fa
:0401b000c602000083
:020000040000fa
:0401b400c60200007f
:020000040000fa
:0401b800c60200007b
:020000040000fa
:0401bc00c602000077
:020000040000fa
:0401c000c602000073
:020000040000fa
:0401c400c60200006f
:020000040000fa
:0401c800c60200006b
:020000040000fa
:0401cc00c602000067
:020000040000fa
:0401d000c602000063
:020000040000fa
:0401d400c60200005f
:020000040000fa
:0401d800c60200005b
:020000040000fa
:0401dc00c602000057
:020000040000fa
:0401e000c602000053
:020000040000fa
:0401e400c60200004f
:020000040000fa
:0401e800c60200004b
:020000040000fa
:0401ec00c602000047
:020000040000fa
:0401f000c602000043
:020000040000fa
:0401f400c60200003f
:020000040000fa
:0401f800c60200003b
:020000040000fa
:0401fc00c602000037
:020000040000fa
:100200006f8420000eff27000e0188000000000010
:10021000000020000000e000020032000001200089
:100220002002880014000700da0007000000e00048
:1002300003003a00608e2000010020000200370019
:100240000000200001002000810f7000010032003a
:1002500014000700000020000000e000020032004f
:100260000000020000000000f4070200000000008f
:100270000040da000000fe004440a90040022000d7
:100280000000e00003003200002020009001880000
:100290004440a800000006008a1f78008b1f7800e9
:1002a00000000600a1028800800478000000eb0036
:1002b0001f003700e284440054a0b4009905ba003e
:1002c000e284440054a0b4009906ba00e2844400d9
:1002d00054a0b4000006eb00476fde00fd07b2003b
:1002e000ae018800636ce10003003a00eaff0700fa
:1002f0000000eb000e003700606ce10008003a00df
:10030000004deb000a05e800020039003420ec0043
:100310000af0a0008b05e900f9ff3e000400370059
:100320006168e100010032000086eb000b0007006d
:1003300019c7ba001905ba000e04e00003003a001c
:100340000a00e000dbff3a0000000600fe07b200f2
:10035000ae0288008a047800f5ff37000cd0a300b5
:10036000e20f4d001c00390089027800354dba00bb
:100370000a05e800020039003420ec000af0a00071
:100380008b05e9000f003200254dba000a05e80090
:10039000020039003420ec000af0a0008b05e900cf
:1003a000080032000c00e0000600320015cdba0053
:1003b0000a05e800020039003420ec000af0a00031
:1003c0008b05e9008984e80054a0b4000b00e0002c
:1003d000e2ff3a00000006009902ba00055d7800cd
:1003e0008b05e900f7ff3200c82ade00055d7800c2
:1003f0008b05e900f3ff32000c00e000f1ff320052
:1004000019ddba00eeff37003600f800809fbe000d
:10041000829fbe00849fbe00869fbe000000fa003f
:100420008020a9000000eb008f0307000080fa0085
:100430004f03be004f02be004f01be004f00be0082
:100440003600f900004006003600f800809fbe002c
:10045000829fbe00849fbe00869fbe000000fa00ff
:10046000860307008040a900100020007e030700db
:100470000080fa004f03be004f02be004f01be00d5
:100480004f00be003600f900004006003600f800bc
:10049000809fbe00829fbe00849fbe00869fbe00dc
:1004a0000000fa008060a900200020006e03070011
:1004b0000080fa004f03be004f02be004f01be0095
:1004c0004f00be003600f900004006003600f8007c
:1004d000809fbe00829fbe00849fbe00869fbe009c
:1004e0000000fa008080a900300020005e030700b1
:1004f0000080fa004f03be004f02be004f01be0055
:100500004f00be003600f900004006003600f8003b
:10051000809fbe00829fbe00849fbe00869fbe005b
:100520000000fa008600a900700020004e030700ba
:100530000080fa004f03be004f02be004f01be0014
:100540004f00be003600f900004006003600f800fb
:10055000809fbe00829fbe00849fbe00869fbe001b
:100560000000fa0085e0a900800020003e0307009b
:100570000080fa004f03be004f02be004f01be00d4
:100580004f00be003600f900004006000040da00cf
:100590000000fe00000005000001780082017800e4
:1005a0003204e000fdff3a0003017800b141780019
:1005b000035978000304e000fcff3a000000060045
:020000040000fa
:1005c0005072000065730000732000007468000022
:1005d000652000004b650000797000006164000038
:1005e0000a000000507200006573000073200000d4
:1005f00074680000652000004b6500007970000001
:0806000061640000000000002d
:020000040000fa
:100608000200fa00004f78009de6a9001e80fb005a
:100618004f00dd000135800001f0a10001007000ed
:10062800003588000080fa00000006000200fa0089
:10063800004f7800c4a6a9001e80fb00610060007e
:100648004500dd00413680000150a1000100700026
:10065800403688000080fa00000006000200fa0018
:10066800004f7800c446a9001e80fb0061006000ae
:100678004200dd00413680000120a1000100700029
:10068800403688000080fa00000006000200fa00e8
:10069800004f7800c4e6a9001e80fb0061006000de
:1006a8004700dd00413680000170a10001007000a4
:1006b800403688000080fa00000006000200fa00b8
:1006c800004f7800d866a9001e80fb00610060001a
:1006d8004300dd00e13680000130a1000100700018
:1006e800e03688000080fa00000006000200fa00e8
:1006f800004f78006086a9001e80fb006100600042
:100708004400dd00213380000140a1000100700099
:10071800203388000080fa00000006000200fa007a
:10072800004f78006046a9001e80fb006100600051
:100738004200dd00213380000120a100010070008b
:10074800203388000080fa00000006000000fa004c
:100758000040eb00430107000040eb00efff0700fb
:100768000040eb00d5ff07000040eb00dfff07006b
:1007780010c0b300ddff0700003025007100200025
:10078800a902070030032000fd0007002003200015
:10079800fb00070080022000f9000700c0002000cd
:1007a800f700070060002000f50007006000070060
:1007b80010c0b3000080fa00000006000400fa0030
:1007c800000f7800110798000a0037001e00780013
:1007d800104078000000fb000000e000110032002b
:1007e8001e007800104078001e0fe8001000070077
:1007f800000000001e00900000f0a7000000ea00c2
:100808000000ea004f00de00004078009e009000e3
:100818008100e900110798000004e000ebff3a00ae
:1008280001003700000000000080fa000000060008
:100838000200fa00004f78001e00fb00ea0f50008b
:100848000e003200ea0f500003003c00e80f500091
:10085800150032001b003700ec0f50001700320063
:10086800ed0f500017003a0002c8bf00ea4f5000d1
:1008780029003200430007002800370002c8bf00e3
:10088800ed4f5000010032003e00070000c8bf00d5
:100898000004e00002003a00870007001f0037004c
:1008a8007a0007001d0037004200070000c2b300ad
:1008b800dfff07003f000700180037001c00070093
:1008c8001600370001c8bf00f04f50000c003a0076
:1008d8000168ef0000c8bf000004e00005003a000e
:1008e800000c2000a600070010c0b30000e8b70005
:1008f8000300370000082000a10007000068ef008f
:100908001e4078007700070001c8bf000040e800db
:1009180001e8b70001003700000000001e41780020
:1009280021802000824878000080fa00000006003c
:100938000000fa00100020009100070020002000ad
:100948008f0007000068ef000168ef000080fa00e0
:10095800000006000200fa00004f78001e407800f0
:100968000004e00003003200f000200084000700cb
:1009780002003700c0002000810007000080fa0054
:10098800000006000000fa0000c8bf000004e000f4
:1009980003003a0000082000790007000200370031
:1009a800000c2000760007000168ef000080fa00c4
:1009b800000006000200fa0001c8bf000004e000c1
:1009c80014003a0000c8bf000004e00005003a0027
:1009d800000c20006a00070010c0b30000e8b70050
:1009e8000300370000082000650007000068ef00da
:1009f8000040eb00004f7800020037000c000700b1
:100a08001e4fe8001e407800ee4f5000fbff3600f6
:100a18000500370001c8bf000040e90001e8b70041
:100a280000012000560007000080fa0000000600c0
:100a38000000fa00400120005100070001c8bf0073
:100a48000040e80001e8b70001c8bf00f04f5000bf
:100a58000c003a000168ef0000c8bf000004e00085
:100a680005003a00000c20004500070010c0b30044
:100a780000e8b70003003700000820004000070026
:100a88000068ef000080fa00000006000200fa008b
:100a98000040eb00004f780002003700c5ff070058
:100aa8001e4fe8001e407800ef4f5000fbff360055
:100ab8000080fa00000006000200fa000040eb0087
:100ac800004f780002003700d9ff07001e4fe800ea
:100ad8001e407800ef4f5000fbff36000080fa0000
:100ae800000006000200fa00004f78000040eb000a
:100af8000aff070010c0b300f0fe07001e00fb004d
:100b08004480de0000407800560007000001200005
:100b180001002000c401070010c0b300f3fe070065
:100b28000001200001002000bf0107000040eb0089
:100b3800eefe07001e4078004a0007000001200072
:100b480001002000b801070010c0b300e7fe07004d
:100b58000001200001002000b30107000040eb0065
:100b6800e2fe07000040eb00d4fe07000032200040
:100b780001002000ac0107000080fa000000060018
:100b88000200fa00000f78000040eb00e3fe0700c7
:100b98000040eb00c9fe07001e0078004400de009c
:100ba800004078002f00070010c0b300cffe0700f8
:100bb80000012000010020009b0107000040eb001d
:100bc800cafe07000040eb00d4fe07000040eb001f
:100bd800bafe07001e0078000040780021000700d8
:100be80010c0b300c1fe0700000120000100200072
:100bf8008d0107000040eb00bcfe07001e007800d6
:100c0800f40f50000d003200f40f500005003e00b4
:100c1800ec0f500009003200f00f500007003200be
:100c28000a00370081022000810f500003003200c3
:100c380081032000810f500004003a000032200098
:100c4800010020007801070004003700004026005a
:100c58000100200074010700000000000080fa0075
:100c6800000006000200fa00004f78001e80fb001a
:100c78006100600000f0a7000000ea000000ea0040
:100c88004f00de00004078005dfe07001e80fb007c
:100c98000000d100004078000080fb006100600087
:100ca80000f0a7000000ea000000ea004f00de00a4
:100cb800004078005dfe07001e80fb004200de0059
:100cc800004078000080fb006100600000f0a70091
:100cd8000000ea000000ea004f00de000040780053
:100ce8005efe07001e80fb004300de000040780027
:100cf8000080fb006100600000f0a7000000ea002f
:100d08000000ea004f00de00004078005ffe0700a8
:100d18000080fa00000006000000fa007866a800cb
:100d28006526a9007906a9007946a9000080fa007d
:100d3800000006000000fa007866a9006526a800f1
:100d48007906a9007946a9000080fa00000006008b
:100d58000000fa007866a9006526a9007906a800af
:100d68007946a9000080fa00000006000000fa0099
:100d78007866a9006526a9007906a9007946a80021
:100d88000080fa00000006001400fa00100f980016
:100d9800002e280011000900305f78002e01b100f4
:100da8002001b1009e0890000e007800f8fd0700b1
:100db800dffe0700410120000e0078007ffe0700db
:100dc8000080fa00000006000000fa00d2ff0700c9
:100dd800b133800000082000008060000000e000bf
:100de8000200320060822000e7ff07001133800014
:100df80000402000008060000000e0000300320096
:100e0800608220000080e800dfff0700b133800027
:100e180000202000008060000000e0000300320095
:100e28006082200064004000d7ff0700b1338000d3
:100e380000802000008060000000e0000300320015
:100e48006082200066004000cfff0700b9ff07005e
:100e5800b133800000082000008060000000e0003e
:100e6800030032006082200068004000c6ff0700cf
:100e78001133800000402000008060000000e00086
:100e880003003200608220006a004000beff0700b5
:100e9800b133800000202000008060000000e000e6
:100ea80003003200608220006c004000b6ff07009b
:100eb800b133800000802000008060000000e00066
:100ec80003003200608220006e004000aeff070081
:100ed8009fff0700b13380000008200000806000f9
:100ee8000000e00003003200608220007000400033
:100ef800a5ff07001133800000402000008060003b
:100f08000000e00003003200608220007200400010
:100f18009dff0700b13380000020200000806000a2
:100f28000000e000030032006082200074004000ee
:100f380095ff0700b133800000802000008060002a
:100f48000000e000030032006082200076004000cc
:100f58008dff070085ff0700b133800000082000df
:100f6800008060000000e000030032006082200082
:100f78007800400084ff0700113380000040200003
:100f8800008060000000e000030032006082200062
:100f98007a0040007cff0700b13380000020200069
:100fa800008060000000e000030032006082200042
:100fb8007c00400074ff0700b133800000802000ef
:100fc800008060000000e000030032006082200022
:100fd8007e0040006cff07000080fa000000060059
:100fe8001400fa00aa000700d8fd070050fe070009
:100ff80041012000202f2800f0fd070072ff0700a4
:10100800feff37000000fa006426ef007826ef00a4
:101018008c26ef00a026ef00b426ef00c826ef00cc
:10102800dc26ef00f026ef00b04e2c0000338800dd
:1010380070af2f00a0338800e001270040348800fb
:10104800f0ff2700e0348800f03f2000803588005a
:10105800b011230020368800703c2f00c03688006d
:1010680010002000603788007226ef008626ef0007
:101078009a26ef00ae26ef00c226ef00d626ef0034
:10108800ea26ef00fe26ef007026ef008426ef0028
:101098009826ef00ac26ef00c026ef00d426ef001c
:1010a800e826ef00fc26ef0000402000903388007f
:1010b80000a82000303488009a26ef00ae26ef0002
:1010c800c226ef00d626ef00ea26ef00fe26ef0044
:1010d8007026ef008426ef009826ef00ac26ef007c
:1010e800c026ef00d426ef00e826ef00fc26ef002c
:1010f8006626ef007a26ef008e26ef00a226ef0084
:10110800b626ef00ca26ef00de26ef00f226ef0033
:10111800000c20004033880040072f00e03388008f
:10112800000120008034880000cc20002035880091
:1011380080212000c0358800003c2000003788004e
:101148000080fa00000006000000fa0000002300fa
:10115800100888000621ef006821ef006a21ef00df
:101168000c21ef000e21ef007821ef007c21ef0029
:101178007e21ef008021ef008221ef008421ef0023
:101188008621ef000001eb0080072000a109200064
:10119800131020008049780081497800824978003e
:1011a8000001eb00600420007105200003102000fe
:1011b8008049780081497800824978000080fa00e7
:0411c800000006001d
:020000040000fa
:1011cc000608000020000000800000000408000059
:1011dc000200000082000000ffff00000008000079
:1011ec000400000080000000260800002000000021
:1011fc008200000031003200003300004100340056
:10120c00003500003600420000370000380039007d
:10121c00004300002a0030000023000044000000be
:04122c0000000000be
:020000040000fa
:10123000f03fb1000180b10006003500ee03090067
:1012400000000000403fb1000180b100fbff3d0005
:101250001000b000203fb0000200350000800900ff
:08126000000000000000060080
:020000040000fa
:101268000200fa00000f78009e00780021408800f4
:10127800ffff37000000fa00608020008007780038
:10128800e0812000000188000080fa0000000600cc
:101298000000fa005bff070003000700aaff070031
:1012a8000080fa00000006000000fa000080fa0042
:0412b800000006002c
:020000040000fa
:02000004000af0
:04be0000ffffff0041
:020000040000fa
:02000004000af0
:04be2000ffffff0021
:020000040000fa
:02000004000af0
:04be300078ffff0098
:020000040000fa
:02000004000af0
:04be3800b7ffff0051
:020000040000fa
:02000004000af0
:04be40009fffff0061
:020000040000fa
:02000004000af0
:04be4800ffffff00f9
:020000040000fa
:02000004000af0
:04be5000dfffff0011
:020000040000fa
:02000004000af0
:04be58000000ff00e7
:020000040000fa
:02000004000af0
:04be60000000ff00df
:020000040000fa
:02000004000af0
:04be68000000ff00d7
:020000040000fa
:02000004000af0
:04be70000000ff00cf
:020000040000fa
:02000004000af0
:04be7800ffffff00c9
:020000040000fa
:02000004000af0
:04be8000ffffff00c1
:020000040000fa
:020000040100f9
:04300000ffffff00cf
:00000001FF
